{
  "_format": "hh-sol-artifact-1",
  "contractName": "KlayTimeCapsule",
  "sourceName": "contracts/KlayTimeCapsule.sol",
  "abi": [
    {
      "inputs": [],
      "stateMutability": "nonpayable",
      "type": "constructor"
    },
    {
      "anonymous": false,
      "inputs": [
        {
          "indexed": true,
          "internalType": "address",
          "name": "previousOwner",
          "type": "address"
        },
        {
          "indexed": true,
          "internalType": "address",
          "name": "newOwner",
          "type": "address"
        }
      ],
      "name": "OwnershipTransferred",
      "type": "event"
    },
    {
      "inputs": [
        {
          "internalType": "address",
          "name": "user",
          "type": "address"
        },
        {
          "internalType": "address",
          "name": "asset",
          "type": "address"
        },
        {
          "internalType": "uint256[]",
          "name": "ids",
          "type": "uint256[]"
        }
      ],
      "name": "executeCapsule_kip17",
      "outputs": [],
      "stateMutability": "nonpayable",
      "type": "function"
    },
    {
      "inputs": [
        {
          "internalType": "address",
          "name": "user",
          "type": "address"
        },
        {
          "internalType": "address",
          "name": "asset",
          "type": "address"
        }
      ],
      "name": "executeCapsule_kip7",
      "outputs": [],
      "stateMutability": "nonpayable",
      "type": "function"
    },
    {
      "inputs": [],
      "name": "owner",
      "outputs": [
        {
          "internalType": "address",
          "name": "",
          "type": "address"
        }
      ],
      "stateMutability": "view",
      "type": "function"
    },
    {
      "inputs": [],
      "name": "renounceOwnership",
      "outputs": [],
      "stateMutability": "nonpayable",
      "type": "function"
    },
    {
      "inputs": [
        {
          "internalType": "address",
          "name": "_target",
          "type": "address"
        }
      ],
      "name": "setTarget",
      "outputs": [],
      "stateMutability": "nonpayable",
      "type": "function"
    },
    {
      "inputs": [
        {
          "internalType": "address",
          "name": "",
          "type": "address"
        }
      ],
      "name": "target",
      "outputs": [
        {
          "internalType": "address",
          "name": "",
          "type": "address"
        }
      ],
      "stateMutability": "view",
      "type": "function"
    },
    {
      "inputs": [
        {
          "internalType": "address",
          "name": "newOwner",
          "type": "address"
        }
      ],
      "name": "transferOwnership",
      "outputs": [],
      "stateMutability": "nonpayable",
      "type": "function"
    }
  ],
  "bytecode": "0x608060405234801561001057600080fd5b5061002d61002261003260201b60201c565b61003a60201b60201c565b6100fe565b600033905090565b60008060009054906101000a900473ffffffffffffffffffffffffffffffffffffffff169050816000806101000a81548173ffffffffffffffffffffffffffffffffffffffff021916908373ffffffffffffffffffffffffffffffffffffffff1602179055508173ffffffffffffffffffffffffffffffffffffffff168173ffffffffffffffffffffffffffffffffffffffff167f8be0079c531659141344cd1fd0a4f28419497f9722a3daafe3b4186f6b6457e060405160405180910390a35050565b610db98061010d6000396000f3fe608060405234801561001057600080fd5b506004361061007d5760003560e01c8063776d1a011161005b578063776d1a01146100c45780638da5cb5b146100e0578063dad9da8a146100fe578063f2fde38b1461012e5761007d565b806310f27ae314610082578063196fe80b1461009e578063715018a6146100ba575b600080fd5b61009c600480360381019061009791906109db565b61014a565b005b6100b860048036038101906100b39190610a4a565b6102d3565b005b6100c26104b2565b005b6100de60048036038101906100d99190610a8a565b61053a565b005b6100e86105bb565b6040516100f59190610ac6565b60405180910390f35b61011860048036038101906101139190610a8a565b6105e4565b6040516101259190610ac6565b60405180910390f35b61014860048036038101906101439190610a8a565b610617565b005b61015261070e565b73ffffffffffffffffffffffffffffffffffffffff166101706105bb565b73ffffffffffffffffffffffffffffffffffffffff16146101c6576040517f08c379a00000000000000000000000000000000000000000000000000000000081526004016101bd90610b3e565b60405180910390fd5b60005b81518110156102cd578273ffffffffffffffffffffffffffffffffffffffff166323b872dd85600160008873ffffffffffffffffffffffffffffffffffffffff1673ffffffffffffffffffffffffffffffffffffffff16815260200190815260200160002060009054906101000a900473ffffffffffffffffffffffffffffffffffffffff1685858151811061026257610261610b5e565b5b60200260200101516040518463ffffffff1660e01b815260040161028893929190610b9c565b600060405180830381600087803b1580156102a257600080fd5b505af11580156102b6573d6000803e3d6000fd5b5050505080806102c590610c02565b9150506101c9565b50505050565b6102db61070e565b73ffffffffffffffffffffffffffffffffffffffff166102f96105bb565b73ffffffffffffffffffffffffffffffffffffffff161461034f576040517f08c379a000000000000000000000000000000000000000000000000000000000815260040161034690610b3e565b60405180910390fd5b60008173ffffffffffffffffffffffffffffffffffffffff166370a08231846040518263ffffffff1660e01b815260040161038a9190610ac6565b602060405180830381865afa1580156103a7573d6000803e3d6000fd5b505050506040513d601f19601f820116820180604052508101906103cb9190610c5f565b90508173ffffffffffffffffffffffffffffffffffffffff166323b872dd84600160008773ffffffffffffffffffffffffffffffffffffffff1673ffffffffffffffffffffffffffffffffffffffff16815260200190815260200160002060009054906101000a900473ffffffffffffffffffffffffffffffffffffffff16846040518463ffffffff1660e01b815260040161046993929190610b9c565b6020604051808303816000875af1158015610488573d6000803e3d6000fd5b505050506040513d601f19601f820116820180604052508101906104ac9190610cc4565b50505050565b6104ba61070e565b73ffffffffffffffffffffffffffffffffffffffff166104d86105bb565b73ffffffffffffffffffffffffffffffffffffffff161461052e576040517f08c379a000000000000000000000000000000000000000000000000000000000815260040161052590610b3e565b60405180910390fd5b6105386000610716565b565b80600160003373ffffffffffffffffffffffffffffffffffffffff1673ffffffffffffffffffffffffffffffffffffffff16815260200190815260200160002060006101000a81548173ffffffffffffffffffffffffffffffffffffffff021916908373ffffffffffffffffffffffffffffffffffffffff16021790555050565b60008060009054906101000a900473ffffffffffffffffffffffffffffffffffffffff16905090565b60016020528060005260406000206000915054906101000a900473ffffffffffffffffffffffffffffffffffffffff1681565b61061f61070e565b73ffffffffffffffffffffffffffffffffffffffff1661063d6105bb565b73ffffffffffffffffffffffffffffffffffffffff1614610693576040517f08c379a000000000000000000000000000000000000000000000000000000000815260040161068a90610b3e565b60405180910390fd5b600073ffffffffffffffffffffffffffffffffffffffff168173ffffffffffffffffffffffffffffffffffffffff1603610702576040517f08c379a00000000000000000000000000000000000000000000000000000000081526004016106f990610d63565b60405180910390fd5b61070b81610716565b50565b600033905090565b60008060009054906101000a900473ffffffffffffffffffffffffffffffffffffffff169050816000806101000a81548173ffffffffffffffffffffffffffffffffffffffff021916908373ffffffffffffffffffffffffffffffffffffffff1602179055508173ffffffffffffffffffffffffffffffffffffffff168173ffffffffffffffffffffffffffffffffffffffff167f8be0079c531659141344cd1fd0a4f28419497f9722a3daafe3b4186f6b6457e060405160405180910390a35050565b6000604051905090565b600080fd5b600080fd5b600073ffffffffffffffffffffffffffffffffffffffff82169050919050565b6000610819826107ee565b9050919050565b6108298161080e565b811461083457600080fd5b50565b60008135905061084681610820565b92915050565b600080fd5b6000601f19601f8301169050919050565b7f4e487b7100000000000000000000000000000000000000000000000000000000600052604160045260246000fd5b61089a82610851565b810181811067ffffffffffffffff821117156108b9576108b8610862565b5b80604052505050565b60006108cc6107da565b90506108d88282610891565b919050565b600067ffffffffffffffff8211156108f8576108f7610862565b5b602082029050602081019050919050565b600080fd5b6000819050919050565b6109218161090e565b811461092c57600080fd5b50565b60008135905061093e81610918565b92915050565b6000610957610952846108dd565b6108c2565b9050808382526020820190506020840283018581111561097a57610979610909565b5b835b818110156109a3578061098f888261092f565b84526020840193505060208101905061097c565b5050509392505050565b600082601f8301126109c2576109c161084c565b5b81356109d2848260208601610944565b91505092915050565b6000806000606084860312156109f4576109f36107e4565b5b6000610a0286828701610837565b9350506020610a1386828701610837565b925050604084013567ffffffffffffffff811115610a3457610a336107e9565b5b610a40868287016109ad565b9150509250925092565b60008060408385031215610a6157610a606107e4565b5b6000610a6f85828601610837565b9250506020610a8085828601610837565b9150509250929050565b600060208284031215610aa057610a9f6107e4565b5b6000610aae84828501610837565b91505092915050565b610ac08161080e565b82525050565b6000602082019050610adb6000830184610ab7565b92915050565b600082825260208201905092915050565b7f4f776e61626c653a2063616c6c6572206973206e6f7420746865206f776e6572600082015250565b6000610b28602083610ae1565b9150610b3382610af2565b602082019050919050565b60006020820190508181036000830152610b5781610b1b565b9050919050565b7f4e487b7100000000000000000000000000000000000000000000000000000000600052603260045260246000fd5b610b968161090e565b82525050565b6000606082019050610bb16000830186610ab7565b610bbe6020830185610ab7565b610bcb6040830184610b8d565b949350505050565b7f4e487b7100000000000000000000000000000000000000000000000000000000600052601160045260246000fd5b6000610c0d8261090e565b91507fffffffffffffffffffffffffffffffffffffffffffffffffffffffffffffffff8203610c3f57610c3e610bd3565b5b600182019050919050565b600081519050610c5981610918565b92915050565b600060208284031215610c7557610c746107e4565b5b6000610c8384828501610c4a565b91505092915050565b60008115159050919050565b610ca181610c8c565b8114610cac57600080fd5b50565b600081519050610cbe81610c98565b92915050565b600060208284031215610cda57610cd96107e4565b5b6000610ce884828501610caf565b91505092915050565b7f4f776e61626c653a206e6577206f776e657220697320746865207a65726f206160008201527f6464726573730000000000000000000000000000000000000000000000000000602082015250565b6000610d4d602683610ae1565b9150610d5882610cf1565b604082019050919050565b60006020820190508181036000830152610d7c81610d40565b905091905056fea2646970667358221220c480b09ba339ed9a726370d1eef4dc1b124f76314d0a18ee5daf883a96ebbc4d64736f6c63430008110033",
  "linkReferences": {},
  "deployedLinkReferences": {}
}